S02A000073657269656C206B6F6D6D756E696B6174696F6E2061726475696E6F2064656C656E2E7372656396
S11300000C9472000C9494000C9494000C9494003E
S11300100C9494000C9494000C9494000C9494000C
S11300200C9494000C9494000C9494000C949400FC
S11300300C9494000C9494000C9494000C949400EC
S11300400C9494000C9494000C9494000C949400DC
S11300500C9494000C9494000C9494000C949400CC
S11300600C9494000C9494000C9494000C949400BC
S11300700C9494000C9494000C9494000C949400AC
S11300800C9494000C9494000C9494000C9494009C
S11300900C9494000C9494000C9494000C9494008C
S11300A00C9494000C9494000C9494000C9494007C
S11300B00C9494000C9494000C9494000C9494006C
S11300C00C9494000C9494000C9494000C9494005C
S11300D00C9494000C9494000C9494000C9494004C
S11300E00C94940011241FBECFEFD1E2DEBFCDBF2C
S11300F000E00CBF12E0A0E0B2E0E8E5F4E000E0CC
S11301000BBF02C007900D92A030B107D9F71BBEF8
S113011012E0A0E0B2E001C01D92A030B107E1F707
S11301200E94EC000C942A020C9400006F3F21F40E
S113013090E00E94DD000895603F29F480E090E0A3
S11301400E94BC0008956F3021F48FEF90E00E946C
S1130150BC000895FC018081982F9295907F618165
S113016062956F70692B82958F700E949600089536
S11301708FEF84B915B8089585B90895883060F46F
S113018043B121E030E0B90102C0660F771F8A95C0
S1130190E2F7CB01842B85B90895883068F443B124
S11301A021E030E0B90102C0660F771F8A95E2F7BB
S11301B0CB018095842385B90895883060F443B1D8
S11301C021E030E0B90102C0660F771F8A95E2F79B
S11301D0CB01842785B90895CF93DF930F920F92B3
S11301E0CDB7DEB760E875E280E090E048E02EE449
S11301F00E9431010E94B8000E941A010F2EF3E000
S1130200EF2EFF24F02DEC0EFD1E0CC00E94860183
S1130210F80181938F01EE15FF0539F4CE010196A3
S11302200E94AA008E010F5F1F4F0E948201882343
S1130230E1F3ECCF11B8089580B18095089588302A
S113024070F440B121E030E0B90102C0660F771FBD
S11302508A95E2F7CB01942F90958923089580E045
S113026008950F931F93DC01CB01522F8C019D0144
S11302700C52114020403040053D60EC160761E00F
S1130280260760E03607D8F54530C8F14930B8F59F
S113029020E22093C00028E12093C1004550440F80
S11302A04093C200553431F4E2ECF0E02081206246
S11302B0208307C05F3429F4E2ECF0E0208120635E
S11302C02083880F991FAA1FBB1F880F991FAA1F7D
S11302D0BB1F9C01AD01220F331F441F551F220F6A
S11302E0331F441F551F60E074E284EF90E00E94C6
S11302F0C301215030403093C5002093C4001F91A6
S11303000F9108958091C00080780895E0ECF0E0AA
S113031080818823ECF78091C6000895E0ECF0E03A
S1130320908195FFFDCF8093C6000895CF93DF930E
S1130330EC018881882331F021960E948E018991F5
S11303408823D9F7DF91CF910895CF93DF93CDB769
S1130350DEB727970FB6F894DEBF0FBECDBFBE0140
S11303606F5F7F4F4AE050E00E94E501CE010196A5
S11303700E94960127960FB6F894DEBF0FBECDBF3C
S1130380DF91CF910895A1E21A2EAA1BBB1BFD0198
S11303900DC0AA1FBB1FEE1FFF1FA217B307E40760
S11303A0F50720F0A21BB30BE40BF50B661F771FB8
S11303B0881F991F1A9469F7609570958095909598
S11303C09B01AC01BD01CF010895FB019F01E8949D
S11303D04230C4F04532B4F44A3029F497FB1EF499
S11303E0909581959F4F642F77270E941602805D18
S11303F08A330CF0895D8193CB010097A1F716F441
S11304005DE251931082C9010C940602DC01FC01E7
S1130410672F71917723E1F7329704C07C916D9334
S113042070836291AE17BF07C8F30895AA1BBB1B64
S113043051E107C0AA1FBB1FA617B70710F0A61BE0
S1130440B70B881F991F5A95A9F780959095BC0101
S10B0450CD010895F894FFCFDB
S9030000FC
